:100000000C944D000C946C000C946C000C946C00DF
:100010000C946C000C946C000C946C000C946C00B0
:100020000C946C000C946C000C946C000C946C00A0
:100030000C946C000C94AA000C946C000C946C0052
:100040000C946C000C946C000C946C000C946C0080
:100050000C946C000C946C000C946C000C946C0070
:100060000C946C000C946C000C946C000C946C0060
:100070000C946C000C946C000C946C000C946C0050
:100080000C946C000C946C000C946C0016011D0117
:10009000870145015F01AF01CA0111241FBECFEFE7
:1000A000D0E4DEBFCDBF11E0A0E0B1E0E6E9F4E0CE
:1000B00000E00BBF02C007900D92A231B107D9F743
:1000C00021E0A2E1B1E001C01D92AA31B207E1F73F
:1000D0000E9423020C9449020C940000CF93C82F75
:1000E0008A3019F48DE00E946E008091C00085FF77
:1000F000FCCFC093C60080E090E0CF9108958BE0E4
:10010000809381008DE790E0909389008093880030
:1001100082E080936F00109285001092840080919D
:100120000E0190910F01A0911001B09111018093E7
:10013000130190931401A0931501B09316018FB78A
:1001400080688FBF089510928100089581E08093A8
:10015000170108951F920F920FB60F9211240BB63C
:100160000F922F933F934F935F936F937F938F9350
:100170009F93AF93BF93EF93FF938091130190915F
:100180001401A0911501B09116010197A109B109BF
:100190008093130190931401A0931501B09316015D
:1001A000892B8A2B8B2B91F40E94A60080910E0143
:1001B00090910F01A0911001B09111018093130152
:1001C00090931401A0931501B0931601FF91EF9144
:1001D000BF91AF919F918F917F916F915F914F915F
:1001E0003F912F910F900BBE0F900FBE0F901F905D
:1001F000189560930E0170930F01809310019093F6
:100200001101609313017093140180931501909371
:1002100016010895E0911801F0911901E730F105F8
:1002200008F0D7C0EA5BFF4F0C94400281E090E0F9
:100230009093190180931801D0C0813051F483E06C
:1002400090E0909319018093180181E0809312014E
:10025000C4C0823051F485E090E0909319018093FE
:10026000180181E080931201B8C0833039F486E030
:1002700090E09093190180931801AFC081E090E065
:100280009093190180931801A8C0813039F483E05C
:1002900090E090931901809318019FC082508230A2
:1002A00038F486E090E0909319018093180195C08E
:1002B00084E090E090931901809318018EC0813002
:1002C00051F483E090E0909319018093180181E04C
:1002D0008093120182C0823051F485E090E09093C7
:1002E00019018093180181E08093120176C0833058
:1002F00039F486E090E090931901809318016DC065
:1003000084E090E0909319018093180166C08130D9
:1003100051F483E090E0909319018093180181E0FB
:10032000809312015AC0823051F485E090E090939E
:1003300019018093180181E0809312014EC083302F
:1003400039F486E090E0909319018093180145C03C
:1003500082E090E090931901809318013EC08130B3
:1003600011F0833039F486E090E090931901809386
:10037000180133C0823039F485E090E09093190180
:10038000809318012AC082E090E090931901809335
:10039000180123C0813051F483E090E0909319015B
:1003A0008093180181E08093120117C0823051F4CC
:1003B00085E090E0909319018093180181E080938B
:1003C00012010BC086E090E0909319018093180110
:1003D00004C0109219011092180180911801909197
:1003E00019018330910589F030F48130910551F085
:1003F0000297C9F0089585309105C1F088F00697FD
:1004000001F1089587E085B9089583B18930D0F46A
:10041000809112018130B1F485B18F5F85B9089563
:1004200010921201089510921201089583B1882349
:1004300049F080911201813029F485B1815085B94C
:10044000089515B8089511B88FEF82B984B915B819
:10045000109219011092180164E670E080E090E0BB
:100460000E94F9000E947F0080B1809583700E94F5
:100470000A01809117018823E1F310921701F4CF4C
:10048000EE0FFF1F0024001C0BBE0790F691E02D1D
:060490000994F894FFCF6F
:1004960000000002000000006E00000000000100E5
:0204A600000054
:00000001FF
