:100000000C9446000C9465000C9465000C946500FB
:100010000C9465000C9465000C9465000C946500CC
:100020000C9465000C9465000C9465000C946500BC
:100030000C9465000C94A3000C9465000C9465006E
:100040000C9465000C9465000C9465000C9465009C
:100050000C9465000C9465000C9465000C9465008C
:100060000C9465000C9465000C9465000C9465007C
:100070000C9465000C9465000C9465000C9465006C
:100080000C9465000C9465000C94650011241FBE4F
:10009000CFEFD0E4DEBFCDBF11E0A0E0B1E0E4E8F7
:1000A000F3E000E00BBF02C007900D92A231B10750
:1000B000D9F721E0A2E1B1E001C01D92AA31B20757
:1000C000E1F70E94A2010C94C0010C940000CF93B0
:1000D000C82F8A3019F48DE00E9467008091C0001B
:1000E00085FFFCCFC093C60080E090E0CF910895DB
:1000F0008BE0809381008DE790E09093890080935E
:10010000880082E080936F00109285001092840036
:1001100080910E0190910F01A0911001B0911101F9
:100120008093130190931401A0931501B0931601CD
:100130008FB780688FBF089510928100089581E085
:100140008093170108951F920F920FB60F921124FA
:100150000BB60F922F933F934F935F936F937F93C1
:100160008F939F93AF93BF93EF93FF93809113016E
:1001700090911401A0911501B09116010197A10968
:10018000B1098093130190931401A0931501B093CA
:100190001601892B8A2B8B2B91F40E949F00809152
:1001A0000E0190910F01A0911001B0911101809367
:1001B000130190931401A0931501B0931601FF91C0
:1001C000EF91BF91AF919F918F917F916F915F91CF
:1001D0004F913F912F910F900BBE0F900FBE0F903C
:1001E0001F90189560930E0170930F01809310017A
:1001F0009093110160931301709314018093150182
:100200009093160108952091180130911901223020
:10021000310541F138F42115310569F021303105FE
:1002200089F060C024303105E9F160F125303105F5
:1002300009F448C057C081E090E090931901809381
:10024000180154C0882339F085E090E0909319019B
:10025000809318014BC082E090E090931901809345
:10026000180144C0882339F085E090E0909319018B
:10027000809318013BC083E090E090931901809334
:10028000180134C0882339F085E090E0909319017B
:10029000809318012BC084E090E090931901809323
:1002A000180124C0882339F085E090E0909319016B
:1002B000809318011BC081E090E090931901809316
:1002C000180114C0882339F081E090E0909319015F
:1002D000809318010BC085E090E090931901809302
:1002E000180104C010921901109218018091180190
:1002F0009091190183309105B9F030F48130910566
:1003000049F0029761F008958430910591F00597C6
:10031000A9F0089581E085B980931201089582E0E3
:1003200085B980931201089584E085B98093120104
:10033000089582E085B98093120108958091120199
:1003400085B9089511B88FEF82B984B915B81092A4
:100350001901109218016CE271E080E090E00E94B7
:10036000F2000E94780090B181E0892781700E949C
:100370000301809117018823E1F310921701F3CF55
:04038000F894FFCF1F
:1003840000000002000000006700000000000100FF
:02039400000067
:00000001FF
