:100000000C9446000C9465000C9465000C946500FB
:100010000C9465000C9465000C9465000C946500CC
:100020000C9465000C9465000C9465000C946500BC
:100030000C9465000C94A3000C9465000C9465006E
:100040000C9465000C9465000C9465000C9465009C
:100050000C9465000C9465000C9465000C9465008C
:100060000C9465000C9465000C9465000C9465007C
:100070000C9465000C9465000C9465000C9465006C
:100080000C9465000C9465000C94650011241FBE4F
:10009000CFEFD0E4DEBFCDBF11E0A0E0B1E0E0ECF7
:1000A000F2E000E00BBF02C007900D92A231B10751
:1000B000D9F721E0A2E1B1E001C01D92A931B20758
:1000C000E1F70E9446010C945E010C940000CF936E
:1000D000C82F8A3019F48DE00E9467008091C0001B
:1000E00085FFFCCFC093C60080E090E0CF910895DB
:1000F0008BE0809381008DE790E09093890080935E
:10010000880082E080936F00109285001092840036
:1001100080910E0190910F01A0911001B0911101F9
:100120008093120190931301A0931401B0931501D1
:100130008FB780688FBF089510928100089581E085
:100140008093160108951F920F920FB60F921124FB
:100150000BB60F922F933F934F935F936F937F93C1
:100160008F939F93AF93BF93EF93FF93809112016F
:1001700090911301A0911401B09115010197A1096B
:10018000B1098093120190931301A0931401B093CD
:100190001501892B8A2B8B2B91F40E949F00809153
:1001A0000E0190910F01A0911001B0911101809367
:1001B000120190931301A0931401B0931501FF91C4
:1001C000EF91BF91AF919F918F917F916F915F91CF
:1001D0004F913F912F910F900BBE0F900FBE0F903C
:1001E0001F90189560930E0170930F01809310017A
:1001F0009093110160931201709313018093140185
:100200009093150108958091170190911801813004
:10021000910571F030F08230910589F00397B1F0CB
:100220001CC081E090E0909318018093170119C0E1
:1002300082E090E0909318018093170112C083E050
:1002400090E090931801809317010BC081E090E03B
:10025000909318018093170104C010921801109216
:10026000170180911701909118018230910541F09A
:100270008330910541F0019741F481E085B90895FB
:1002800082E085B9089584E085B908958FEF84B937
:1002900015B8109218011092170168EE73E080E013
:1002A00090E00E94F2000E9478000E940301809179
:1002B00016018823E1F310921601F7CFF894FFCFCF
:1002C00000000002000000006700000000000100C4
:0202D00000002C
:00000001FF
