:100000000C9446000C945D000C945D000C945D0013
:100010000C945D000C945D000C945D000C945D00EC
:100020000C945D000C945D000C945D000C945D00DC
:100030000C945D000C945D000C945D000C945D00CC
:100040000C945D000C945D000C945D000C945D00BC
:100050000C945D000C945D000C945D000C945D00AC
:100060000C945D000C945D000C945D000C945D009C
:100070000C945D000C945D000C945D000C945D008C
:100080000C945D000C945D000C945D0011241FBE67
:10009000CFEFD0E4DEBFCDBF11E0A0E0B1E0E4E8F7
:1000A000F2E000E00BBF02C007900D92AE30B10746
:1000B000D9F70E9476000C9440010C940000CF9375
:1000C000C82F8A3019F48DE00E945F008091C00033
:1000D00085FFFCCFC093C60080E090E0CF910895EB
:1000E000EAE7F0E08081806E808308958FEF84B925
:1000F00015B88AB91BB80E94700080917800909161
:10010000790000E010E0980140917800509179006A
:1001100060E070E0041715072607370710F48A011E
:100120009B01D901C801880F991FAA1FBB1F880F07
:10013000991FAA1FBB1F880F991FAA1FBB1F801BD7
:10014000910BA20BB30B689412F8B695A7959795EF
:1001500087951694D1F7481759076A077B0718F057
:100160008FEF85B9D1CF68017901CC0CDD1CEE1C75
:10017000FF1CC00ED11EE21EF31ED701C601880F60
:10018000991FAA1FBB1F689412F8B695A79597955B
:1001900087951694D1F784179507A607B70718F423
:1001A0008FE785B9B1CFD901C801880F991FAA1F60
:1001B000BB1F880F991FAA1FBB1F800F911FA21F73
:1001C000B31F689412F8B695A795979587951694DE
:1001D000D1F784179507A607B70718F48FE385B9F9
:1001E00093CFD901C801B695A795979587958417A0
:1001F0009507A607B70718F48FE185B985CFD90110
:10020000C801880F991FAA1FBB1F800F911FA21F33
:10021000B31F689412F8B695A7959795879516948D
:10022000D1F784179507A607B70718F48FE085B9AB
:100230006BCFD901C801B695A79597958795B695C7
:10024000A7959795879584179507A607B70718F47C
:1002500087E085B959CFD901C801689412F8B695DD
:10026000A795979587951694D1F784179507A607B4
:10027000B70718F483E085B947CF81E085B944CF4B
:04028000F894FFCF20
:0E02840000000002000000005F00000000000B
:00000001FF
