:100000000C9446000C945D000C945D000C945D0013
:100010000C945D000C945D000C945D000C945D00EC
:100020000C945D000C945D000C945D000C945D00DC
:100030000C945D000C945D000C945D000C945D00CC
:100040000C945D000C945D000C945D000C945D00BC
:100050000C945D000C945D000C945D000C945D00AC
:100060000C945D000C945D000C945D000C945D009C
:100070000C945D000C945D000C945D000C945D008C
:100080000C945D000C945D000C945D0011241FBE67
:10009000CFEFD0E4DEBFCDBF11E0A0E0B1E0E2E100
:1000A000F2E000E00BBF02C007900D92AE30B10746
:1000B000D9F70E9476000C9407010C940000CF93AE
:1000C000C82F8A3019F48DE00E945F008091C00033
:1000D00085FFFCCFC093C60080E090E0CF910895EB
:1000E000EAE7F0E08081806E808308958FEF84B925
:1000F00015B88AB91BB80E94700080917800909161
:10010000790020E030E04091780050917900241788
:10011000350708F49A01C901880F991F880F991FA4
:10012000880F991F821B930B9695879596958795B7
:10013000969587954817590718F08FEF85B9E3CF43
:10014000C901880F991F820F931F880F991F9695D9
:10015000879596958795969587958417950718F4B2
:100160008FE785B9D0CFC901880F991F880F991FD4
:10017000820F931F96958795969587959695879567
:100180008417950718F48FE385B9BDCFC901880F8F
:10019000991F880F991F969587959695879596959F
:1001A00087958417950718F48FE185B9ACCFC901FD
:1001B000880F991F820F931F96958795969587951F
:1001C000969587958417950718F48FE085B99BCF8E
:1001D000C901880F991F969587959695879596954D
:1001E00087958417950718F487E085B98CCFC901E6
:1001F00096958795969587959695879584179507F3
:1002000018F483E085B97FCF81E085B97CCFF8947D
:02021000FFCF1E
:0E02120000000002000000005F00000000007D
:00000001FF
