:100000000C944D000C946C000C946C000C946C00DF
:100010000C946C000C946C000C946C000C946C00B0
:100020000C946C000C946C000C946C000C946C00A0
:100030000C946C000C9423010C946C000C946C00D8
:100040000C946C000C946C000C946C000C946C0080
:100050000C946C000C946C000C946C000C946C0070
:100060000C946C000C946C000C946C000C946C0060
:100070000C946C000C946C000C946C000C946C0050
:100080000C946C000C946C000C946C008F01960125
:100090009D01BC01DB01FA01190211241FBECFEF43
:1000A000D0E4DEBFCDBF11E0A0E0B1E0E2ECF5E0CE
:1000B00000E00BBF02C007900D92AE31B107D9F737
:1000C00021E0AEE1B1E001C01D92AA32B207E1F732
:1000D0000E94B3020C94DF020C94000040E050E058
:1000E0000CC000002F5F3F4F02C020E030E02730FF
:1000F00063E03607B4F34F5F5F4F48175907ACF31F
:1001000008959BB19F7B9BB988B98BB180688BB9EF
:1001100000008BB18F778BB982E090E00E946E0077
:10012000089581E00E9481000895813120F4815872
:100130000E948100089581550E948100089584E6FF
:1001400090E00E946E0088E30E94810086E00E9499
:1001500081008FE00E94810081E00E9481008AE09E
:1001600090E00E946E0008959BB190649BB988B99D
:100170008BB180688BB900008BB18F778BB981E030
:1001800090E00E946E000895EF92FF920F931F93EC
:10019000CF93DF93182FEB010E9491000EC001E076
:1001A000010F812F0E9495007E018FEFE81AF80A57
:1001B00088810E94B400102FE70188818111EFCF60
:1001C000DF91CF911F910F91FF90EF900895CF9302
:1001D000C82F8A3019F48DE00E94E7008091C0009A
:1001E00085FFFCCFC093C60080E090E0CF910895DA
:1001F0008BE0809381008DE790E09093890080935D
:10020000880082E080936F00109285001092840035
:1002100080910E0190910F01A0911001B0911101F8
:100220008093230190932401A0932501B09326018C
:100230008FB780688FBF089510928100089581E084
:100240008093270108951F920F920FB60F921124E9
:100250000BB60F922F933F934F935F936F937F93C0
:100260008F939F93AF93BF93EF93FF93809123015D
:1002700090912401A0912501B09126010197A10937
:10028000B1098093230190932401A0932501B09399
:100290002601892B8A2B8B2B91F40E941F018091C0
:1002A0000E0190910F01A0911001B0911101809366
:1002B000230190932401A0932501B0932601FF917F
:1002C000EF91BF91AF919F918F917F916F915F91CE
:1002D0004F913F912F910F900BBE0F900FBE0F903B
:1002E0001F90189560930E0170930F018093100179
:1002F0009093110160932301709324018093250151
:10030000909326010895E0912801F0912901E730AA
:10031000F10508F095C0EA5BFF4F0C94D60221E08E
:1003200030E030932901209328018EC022E030E094
:10033000309329012093280187C0909120019530A6
:1003400049F41092200123E030E0309329012093FA
:1003500028017AC090912201993039F426E030E0EA
:1003600030932901209328016FC022E030E03093C0
:1003700029012093280168C090912001953049F40B
:100380001092200124E030E03093290120932801CD
:100390005BC090912201993039F426E030E030932F
:1003A00029012093280150C023E030E03093290137
:1003B0002093280149C090912001953049F4109272
:1003C000200125E030E030932901209328013CC032
:1003D00090912201993039F426E030E030932901E0
:1003E0002093280131C024E030E03093290120938C
:1003F00028012AC090912001953049F410922001E3
:1004000022E030E030932901209328011DC0909113
:100410002201993039F426E030E03093290120930D
:10042000280112C025E030E03093290120932801F3
:100430000BC026E030E0309329012093280104C04E
:100440001092290110922801209128013091290150
:1004500023303105C1F138F42130310579F02230F3
:100460003105B9F008952530310509F45EC008F46E
:1004700044C02630310509F470C0089585E08093AA
:1004800022010E94910080912201805D0E94B400AF
:10049000089591E095B9909120019F5F909320017C
:1004A000882309F45FC080912201882309F45AC08F
:1004B0008150809322010E94910080912201805DF1
:1004C0000E94B400089592E095B9909120019F5F39
:1004D00090932001882309F445C08091220189303E
:1004E00008F040C08F5F809322010E9491008091AC
:1004F0002201805D0E94B400089594E095B9909126
:1005000020019F5F90932001882361F18091220157
:10051000882341F18150809322010E9491008091B3
:100520002201805D0E94B400089592E095B99091F7
:1005300020019F5F909320018823A1F080912201E8
:10054000893080F48F5F809322010E949100809116
:100550002201805D0E94B400089562E171E081E0B3
:100560000E94C400089511B88FEF82B984B915B8FC
:1005700087B918B88AB91BB81092290110922801BE
:1005800064E670E080E090E00E9472010E94F80052
:100590000E949F0080B1809583700E9483018091AA
:1005A00027018823E1F310922701F4CFEE0FFF1FFC
:1005B0000024001C0BBE0790F691E02D0994F894DE
:0205C000FFCF6B
:1005C2000000000200000000E7000000000001003F
:0E05D2000000566963746F72792121210000C8
:00000001FF
