:100000000C9446000C9465000C9465000C946500FB
:100010000C9465000C9465000C9465000C946500CC
:100020000C9465000C9465000C9465000C946500BC
:100030000C9465000C94B4000C9465000C9465005D
:100040000C9465000C9465000C9465000C9465009C
:100050000C9465000C9465000C9465000C9465008C
:100060000C9465000C9465000C9465000C9465007C
:100070000C9465000C9465000C9465000C9465006C
:100080000C9465000C9465000C94650011241FBE4F
:10009000CFEFD0E4DEBFCDBF11E0A0E0B1E0E0E6FD
:1000A000F5E000E00BBF02C007900D92A231B1074E
:1000B000D9F721E0A2E1B1E001C01D92AA32B20756
:1000C000E1F70E9465020C94AE020C940000CF93FD
:1000D000C82F8A3019F48DE00E9467008091C0001B
:1000E00085FFFCCFC093C60080E090E0CF910895DB
:1000F00060930001709301018093020190930301CA
:10010000609313017093140180931501909316016D
:1001100008958BE0809381008DE790E090938900B3
:100120008093880082E080936F0010928500109287
:1001300084008091000190910101A0910201B09191
:1001400003018093130190931401A0931501B093C0
:1001500016018FB780688FBF0895109281000895AF
:1001600081E08093170108951F920F920FB60F92AE
:1001700011240BB60F922F933F934F935F936F937E
:100180007F938F939F93AF93BF93EF93FF93809150
:10019000130190911401A0911501B09116010197DE
:1001A000A109B1098093130190931401A093150143
:1001B000B0931601892B8A2B8B2B91F40E94B000EF
:1001C0008091000190910101A0910201B091030181
:1001D0008093130190931401A0931501B09316011D
:1001E000FF91EF91BF91AF919F918F917F916F910F
:1001F0005F914F913F912F910F900BBE0F900FBECB
:100200000F901F90189580912001909121018130CD
:10021000910559F018F00297D1F02DC082E090E0DE
:1002200090932101809320012AC0809119018A3581
:1002300038F481E090E090932101809320011FC069
:1002400082E090E0909321018093200118C080917A
:1002500018018A3038F482E090E090932101809375
:1002600020010DC01092180181E090E090932101CF
:100270008093200104C010922101109220018091EE
:100280002001909121018130910519F0029749F0E8
:10029000089510921C01809119018F5F80931901BC
:1002A000089581E080931C01809118018F5F8093F5
:1002B000180108958091250190912601892B69F4F8
:1002C00010921E0110921D011092270181E090E012
:1002D000909326018093250104C01092260110926C
:1002E00025018091250190912601019791F480B11B
:1002F00086958695869580931D01811103C0109285
:100300001F01089581E080931F0180B18360809375
:100310001E0108958091280190912901009719F0FC
:10032000019741F00EC081E090E090932901809305
:1003300028010BC081E090E090932901809328016F
:1003400004C01092290110922801809128019091F7
:100350002901019741F480911D0190911201981794
:1003600010F480931201089580912201909123014D
:100370008130910559F018F0029779F015C081E0AD
:1003800090E0909323018093220112C082E090E0DC
:1003900090932301809322010BC081E090E0909321
:1003A00023018093220104C01092230110922201A4
:1003B0008091220190912301009719F0029731F06A
:1003C000089580911E01809327010895809127014F
:1003D000811104C090911E01943051F1813021F4BB
:1003E00090911E01953021F1823021F490911E01EF
:1003F0009630F1F0833021F490911E019730C1F0D6
:10040000843021F490911E01992391F0853021F4DC
:1004100090911E01913061F0863021F490911E017F
:10042000923031F0873041F480911E01833021F405
:1004300081E08093240102C01092240180911E016A
:1004400080932701089580911A0190911B010097D4
:1004500019F0019741F00EC081E090E090931B01EC
:1004600080931A010BC081E090E090931B01809370
:100470001A0104C010921B0110921A0180911A01F6
:1004800090911B01019701F563B190911F01492FD4
:1004900050E0440F551F90912401292F30E0220F86
:1004A000331F220F331F90911201892F90E0880F84
:1004B000991F880F991F880F991F90911C01962BE7
:1004C000492B242B822B85B9089511B88FEF82B95F
:1004D00084B915B864E670E080E090E00E9478008E
:1004E0000E94890010922101109220011092260191
:1004F00010922501109229011092280110922301D7
:100500001092220110921B0110921A010F2EF8EE88
:10051000CF2EF3E0DF2EE12CF12CF02D88EEC81663
:1005200083E0D806E104F10428F00E940301C12C05
:10053000D12C76010E945A010E948A010E94B401C6
:100540000E942302809117018823E1F31092170182
:1005500084E6C80ED11CE11CF11CE0CFF894FFCF5B
:100560000100000000000002000000006700000021
:02057000000089
:00000001FF
