:100000000C9446000C9465000C9465000C946500FB
:100010000C9465000C9465000C9465000C946500CC
:100020000C9465000C9465000C9465000C946500BC
:100030000C9465000C94B4000C9465000C9465005D
:100040000C9465000C9465000C9465000C9465009C
:100050000C9465000C9465000C9465000C9465008C
:100060000C9465000C9465000C9465000C9465007C
:100070000C9465000C9465000C9465000C9465006C
:100080000C9465000C9465000C94650011241FBE4F
:10009000CFEFD0E4DEBFCDBF11E0A0E0B1E0E2E7FA
:1000A000F5E000E00BBF02C007900D92A231B1074E
:1000B000D9F721E0A2E1B1E001C01D92AB32B20755
:1000C000E1F70E946A020C94B7020C940000CF93EF
:1000D000C82F8A3019F48DE00E9467008091C0001B
:1000E00085FFFCCFC093C60080E090E0CF910895DB
:1000F00060930001709301018093020190930301CA
:10010000609313017093140180931501909316016D
:1001100008958BE0809381008DE790E090938900B3
:100120008093880082E080936F0010928500109287
:1001300084008091000190910101A0910201B09191
:1001400003018093130190931401A0931501B093C0
:1001500016018FB780688FBF0895109281000895AF
:1001600081E08093170108951F920F920FB60F92AE
:1001700011240BB60F922F933F934F935F936F937E
:100180007F938F939F93AF93BF93EF93FF93809150
:10019000130190911401A0911501B09116010197DE
:1001A000A109B1098093130190931401A093150143
:1001B000B0931601892B8A2B8B2B91F40E94B000EF
:1001C0008091000190910101A0910201B091030181
:1001D0008093130190931401A0931501B09316011D
:1001E000FF91EF91BF91AF919F918F917F916F910F
:1001F0005F914F913F912F910F900BBE0F900FBECB
:100200000F901F90189580912101909122018130CB
:10021000910579F018F00297F1F031C010921901B0
:100220001092180181E090E09093220180932101C7
:100230002AC080911901893038F481E090E09093D0
:100240002201809321011FC082E090E0909322015F
:100250008093210118C080911801811107C082E0AC
:1002600090E090932201809321010DC0109218011B
:1002700081E090E0909322018093210104C01092CC
:10028000220110922101809121019091220181305F
:10029000910519F0029749F0089510921C01809180
:1002A00019018F5F80931901089581E080931C01EB
:1002B000809118018F5F8093180108958091260125
:1002C00090912701892B69F410921F0110921E0151
:1002D0001092280181E090E09093270180932601FD
:1002E00004C010922701109226018091260190915E
:1002F0002701019799F480911D01982F9695969565
:10030000969590931E01911103C0109220010895BB
:1003100091E090932001836080931F010895809164
:10032000290190912A01009719F0019741F00EC020
:1003300081E090E090932A01809329010BC081E035
:1003400090E090932A018093290104C010922A0121
:10035000109229018091290190912A01019741F47D
:1003600080911E0190911201981710F48093120150
:10037000089580912301909124018130910559F0D5
:1003800018F0029779F015C081E090E09093240175
:100390008093230112C082E090E090932401809327
:1003A00023010BC081E090E090932401809323010E
:1003B00004C0109224011092230180912301909196
:1003C0002401009719F0029731F0089580911F01E0
:1003D00080932801089580912801811104C0909193
:1003E0001F01943051F1813021F490911F0195301B
:1003F00021F1823021F490911F019630F1F0833089
:1004000021F490911F019730C1F0843021F4909134
:100410001F01992391F0853021F490911F019130B3
:1004200061F0863021F490911F01923031F08730D5
:1004300041F480911F01833021F481E080932501F4
:1004400002C01092250180911F0180932801089518
:1004500080911A0190911B01009719F0019741F0CA
:100460000EC081E090E090931B0180931A010BC0B5
:1004700081E090E090931B0180931A0104C01092D8
:100480001B0110921A0180911A0190911B01019792
:1004900001F563B190912001492F50E0440F551FA1
:1004A00090912501292F30E0220F331F220F331F97
:1004B00090911201892F90E0880F991F880F991F42
:1004C000880F991F90911C01962B492B242B822B6E
:1004D00085B9089511B88FEF82B984B915B864E66B
:1004E00070E080E090E00E9478000E948900109205
:1004F00022011092210110922701109226011092E0
:100500002A011092290110922401109223011092C5
:100510001B0110921A010F2EF8EECF2EF3E0DF2E02
:10052000E12CF12CF02D80B1809580931D0188EE97
:10053000C81683E0D806E104F10428F00E94030104
:10054000C12CD12C76010E945E010E948F010E9475
:10055000B9010E942802809117018823E1F31092CB
:10056000170184E6C80ED11CE11CF11CDCCFF89405
:02057000FFCFBB
:10057200010000000000000200000000670000000F
:02058200000077
:00000001FF
