:100000000C944F000C946E000C946E000C946E00D7
:100010000C946E000C946E000C946E000C946E00A8
:100020000C946E000C946E000C946E000C946E0098
:100030000C946E000C946E000C946E000C946E0088
:100040000C946E000C946E000C946E000C946E0078
:100050000C946E000C946E000C946E000C946E0068
:100060000C946E000C946E000C946E000C946E0058
:100070000C946E000C946E000C946E000C946E0048
:100080000C946E000C946E000C946E0010015901DB
:1000900037012701170169017901800190011124BD
:1000A0001FBECFEFD0E4DEBFCDBF11E0A0E0B1E0D6
:1000B000E8E0F7E000E00BBF02C007900D92AE321F
:1000C000B107D9F721E0AEE2B1E001C01D92A5333E
:1000D000B207E1F70E94D4010C9482030C94000053
:1000E000CF93C82F8A3019F48DE00E947000809160
:1000F000C00085FFFCCFC093C60080E090E0CF91A8
:100100000895CF92DF92EF92FF926B017C01609194
:100110002F01709130018091310190913201A7013E
:1001200096010E94EE01882309F458C020E030E0D7
:10013000A901C701B6010E94EE01811106C0E1E9E3
:10014000F0E080818870808305C0E1E9F0E0808183
:100150008360808328E539E344E75FE3C701B601A4
:100160000E94EE0188233CF48FEF9FEF909399005B
:100170008093980027C020E034E244EF56E4C701A2
:10018000B6010E94100318162CF4109299001092D8
:10019000980018C020E030E040E053E4C701B60109
:1001A0000E9415039B01AC0160E074E284EF9AE4C5
:1001B0000E94F3010E9465026150710970939900D9
:1001C000609398001092950010929400C0922F01B5
:1001D000D0923001E0923101F0923201FF90EF9025
:1001E000DF90CF90089580E4809390008BE080931F
:1001F000910060E070E0CB010E94810008951092B0
:100200009000109291000895E0913301F091340133
:10021000E930F10508F08BC0EA5BFF4F0C94E50173
:1002200084E090E0909334018093330184C0843063
:1002300039F483E090E090933401809333017BC0E4
:1002400084E090E0909334018093330174C0843053
:1002500039F483E090E090933401809333016BC0D4
:1002600082E090E0909334018093330164C0843045
:1002700039F481E090E090933401809333015BC0C6
:10028000823039F485E090E090933401809333011B
:1002900052C0813039F487E090E09093340180932C
:1002A000330149C082E090E09093340180933301A0
:1002B00042C0843039F481E090E09093340180931F
:1002C000330139C084E090E090933401809333018E
:1002D00032C0823039F485E090E09093340180930D
:1002E000330129C086E090E090933401809333017C
:1002F00022C082E090E090933401809333011BC0D0
:10030000813039F487E090E0909334018093330199
:1003100012C088E090E090933401809333010BC0C9
:1003200082E090E0909334018093330104C01092F6
:100330003401109233018091330190913401843063
:10034000910551F018F4029779F0089586309105DF
:10035000D9F0089709F1089510922E0160E070E03D
:10036000CB010E9481000895E0912E01F0E0EE0F94
:10037000FF1FEE0FFF1FE050FF4F608171818281F0
:1003800093810E948100089580912E01873058F456
:100390008F5F80932E01089580912E01882319F09C
:1003A000815080932E01089511B88FEF82B984B9DE
:1003B00015B810923401109233010E94F30080B1FD
:1003C000809587700E940401FACFEE0FFF1F002472
:1003D000001C0BBE0790F691E02D09940E949B0231
:1003E00008F481E008950E9407020C94D6020E944E
:1003F000CF0258F00E94C80240F029F45F3F29F074
:100400000C94BF0251110C940A030C94C5020E9473
:10041000E70268F39923B1F3552391F3951B550B2C
:10042000BB27AA2762177307840738F09F5F5F4FC7
:10043000220F331F441FAA1FA9F335D00E2E3AF006
:10044000E0E832D091505040E695001CCAF72BD01E
:10045000FE2F29D0660F771F881FBB1F261737076F
:100460004807AB07B0E809F0BB0B802DBF01FF27A1
:1004700093585F4F3AF09E3F510578F00C94BF02BD
:100480000C940A035F3FE4F3983ED4F38695779586
:100490006795B795F7959F5FC9F7880F911D96955A
:1004A000879597F90895E1E0660F771F881FBB1FB6
:1004B000621773078407BA0720F0621B730B840B63
:1004C000BA0BEE1F88F7E09508950E946C026894BD
:1004D000B1110C940A0308950E94EF0288F09F570F
:1004E00098F0B92F9927B751B0F0E1F0660F771F58
:1004F000881F991F1AF0BA95C9F714C0B13091F04E
:100500000E940903B1E008950C940903672F782F26
:100510008827B85F39F0B93FCCF386957795679512
:10052000B395D9F73EF490958095709561957F4F7E
:100530008F4F9F4F0895990F0008550FAA0BE0E8C1
:10054000FEEF16161706E807F907C0F01216130695
:10055000E407F50798F0621B730B840B950B39F4D5
:100560000A2661F0232B242B252B21F408950A263B
:1005700009F4A140A6958FEF811D811D089597F97B
:100580009F6780E870E060E008959FEF80EC089539
:1005900000240A9416161706180609060895002462
:1005A0000A9412161306140605060895092E0394DC
:1005B000000C11F4882352F0BB0F40F4BF2B11F450
:1005C00060FF04C06F5F7F4F8F4F9F4F089557FDAF
:1005D0009058440F551F59F05F3F71F04795880FB1
:1005E00097FB991F61F09F3F79F087950895121648
:1005F00013061406551FF2CF4695F1DF08C01616F4
:1006000017061806991FF1CF8695710561050894A4
:100610000895E894BB2766277727CB0197F90895BB
:100620000E949B0208F48FEF08950E9428030C9407
:10063000D6020E94C80238F00E94CF0220F0952313
:1006400011F00C94BF020C94C50211240C940A03FF
:100650000E94E70270F3959FC1F3950F50E0551F7C
:10066000629FF001729FBB27F00DB11D639FAA2707
:10067000F00DB11DAA1F649F6627B00DA11D661F56
:10068000829F2227B00DA11D621F739FB00DA11D77
:10069000621F839FA00D611D221F749F3327A00D31
:1006A000611D231F849F600D211D822F762F6A2FCD
:1006B00011249F5750409AF0F1F088234AF0EE0F32
:1006C000FF1FBB1F661F771F881F91505040A9F75F
:1006D0009E3F510580F00C94BF020C940A035F3FCB
:1006E000E4F3983ED4F3869577956795B795F7959B
:1006F000E7959F5FC1F7FE2B880F911D9695879513
:0807000097F90895F894FFCF6A
:10070800A4D082437BD49243A4D0A443719DAE432A
:100718000000C4430000DC43A4F0F64300D00244C8
:0E072800000000020000000070000000000051
:00000001FF
