:100000000C944F000C946E000C946E000C946E00D7
:100010000C946E000C946E000C946E000C946E00A8
:100020000C946E000C946E000C946E000C946E0098
:100030000C946E000C94AC000C946E000C946E004A
:100040000C946E000C946E000C946E000C946E0078
:100050000C946E000C946E000C946E000C946E0068
:100060000C946E000C946E000C946E000C946E0058
:100070000C946E000C946E000C946E000C946E0048
:100080000C946E000C946E000C946E009B01E401C5
:10009000C201B201A201F40104020B021B021124ED
:1000A0001FBECFEFD0E4DEBFCDBF11E0A0E0B1E0D6
:1000B000EEE5F8E000E00BBF02C007900D92A2331E
:1000C000B107D9F721E0A2E3B1E001C01D92AE3340
:1000D000B207E1F70E9471020C942D040C94000009
:1000E000CF93C82F8A3019F48DE00E947000809160
:1000F000C00085FFFCCFC093C60080E090E0CF91A8
:1001000008958BE0809381008DE790E090938900C3
:100110008093880082E080936F0010928500109297
:10012000840080912E0190912F01A0913001B09117
:1001300031018093330190933401A0933501B09342
:1001400036018FB780688FBF08951092810008959F
:1001500081E08093370108951F920F920FB60F929E
:1001600011240BB60F922F933F934F935F936F938E
:100170007F938F939F93AF93BF93EF93FF93809160
:10018000330190913401A0913501B091360101976E
:10019000A109B1098093330190933401A0933501F3
:1001A000B0933601892B8A2B8B2B91F40E94A800E7
:1001B00080912E0190912F01A0913001B0913101D9
:1001C0008093330190933401A0933501B0933601AD
:1001D000FF91EF91BF91AF919F918F917F916F911F
:1001E0005F914F913F912F910F900BBE0F900FBEDB
:1001F0000F901F90189560932E0170932F0180939C
:1002000030019093310160933301709334018093F6
:100210003501909336010895CF92DF92EF92FF92CD
:100220006B017C01609138017091390180913A0134
:1002300090913B01A70196010E949902882309F43D
:1002400058C020E030E0A901C701B6010E94990220
:10025000811106C0E1E9F0E080818870808305C0EB
:10026000E1E9F0E080818360808328E539E344E7B9
:100270005FE3C701B6010E94990288233CF48FEF27
:100280009FEF909399008093980027C020E034E27C
:1002900044EF56E4C701B6010E94BB0318162CF4C4
:1002A000109299001092980018C020E030E040E0D1
:1002B00053E4C701B6010E94C0039B01AC0160E09A
:1002C00074E284EF9AE40E949E020E94100361503F
:1002D00071097093990060939800109295001092A4
:1002E0009400C0923801D0923901E0923A01F09224
:1002F0003B01FF90EF90DF90CF90089580E48093D2
:1003000090008BE08093910060E070E0CB010E9450
:100310000C01089510929000109291000895E091C0
:100320003C01F0913D01E930F10508F08BC0EA5B3A
:10033000FF4F0C94900224E030E030933D01209375
:100340003C0184C0843039F423E030E030933D0137
:1003500020933C017BC024E030E030933D012093AA
:100360003C0174C0843039F423E030E030933D0127
:1003700020933C016BC022E030E030933D0120939C
:100380003C0164C0843039F421E030E030933D0119
:1003900020933C015BC0823039F425E030E030939B
:1003A0003D0120933C0152C0813039F427E030E018
:1003B00030933D0120933C0149C022E030E030936E
:1003C0003D0120933C0142C0843039F421E030E00B
:1003D00030933D0120933C0139C024E030E030935C
:1003E0003D0120933C0132C0823039F425E030E0F9
:1003F00030933D0120933C0129C026E030E030934A
:100400003D0120933C0122C022E030E030933D01C9
:1004100020933C011BC0813039F427E030E0309359
:100420003D0120933C0112C028E030E030933D01B3
:1004300020933C010BC022E030E030933D0120933B
:100440003C0104C010923D0110923C0120913C01FE
:1004500030913D012430310561F020F42230310526
:1004600001F108952630310561F12830310589F117
:100470000895823039F490913201973018F49F5FDB
:1004800090933201813039F480913201882319F040
:1004900081508093320160E070E0CB010E940C013A
:1004A0000895E0913201F0E0EE0FFF1FEE0FFF1F05
:1004B000E050FF4F60817181828193810E940C0125
:1004C000089580913201873058F48F5F8093320114
:1004D000089580913201882319F081508093320170
:1004E000089511B88FEF82B984B915B810923D0103
:1004F00010923C0164E670E080E090E00E94FB0016
:100500000E9481000E947E0180B1809587700E94C8
:100510008F01809137018823E1F310923701F4CFE6
:10052000EE0FFF1F0024001C0BBE0790F691E02D7C
:1005300009940E94460308F481E008950E94B202E3
:100540000C9481030E947A0358F00E94730340F0D8
:1005500029F45F3F29F00C946A0351110C94B50300
:100560000C9470030E94920368F39923B1F355230E
:1005700091F3951B550BBB27AA27621773078407B6
:1005800038F09F5F5F4F220F331F441FAA1FA9F34C
:1005900035D00E2E3AF0E0E832D091505040E6953A
:1005A000001CCAF72BD0FE2F29D0660F771F881F9B
:1005B000BB1F261737074807AB07B0E809F0BB0B8E
:1005C000802DBF01FF2793585F4F3AF09E3F5105A2
:1005D00078F00C946A030C94B5035F3FE4F3983E03
:1005E000D4F3869577956795B795F7959F5FC9F78B
:1005F000880F911D9695879597F90895E1E0660F0C
:10060000771F881FBB1F621773078407BA0720F084
:10061000621B730B840BBA0BEE1F88F7E0950895ED
:100620000E9417036894B1110C94B50308950E94B9
:100630009A0388F09F5798F0B92F9927B751B0F0D7
:10064000E1F0660F771F881F991F1AF0BA95C9F756
:1006500014C0B13091F00E94B403B1E008950C943D
:10066000B403672F782F8827B85F39F0B93FCCF3F0
:10067000869577956795B395D9F73EF490958095D3
:10068000709561957F4F8F4F9F4F0895990F000888
:10069000550FAA0BE0E8FEEF16161706E807F90754
:1006A000C0F012161306E407F50798F0621B730BEF
:1006B000840B950B39F40A2661F0232B242B252B70
:1006C00021F408950A2609F4A140A6958FEF811D13
:1006D000811D089597F99F6780E870E060E00895B4
:1006E0009FEF80EC089500240A941616170618064A
:1006F0000906089500240A94121613061406050626
:100700000895092E0394000C11F4882352F0BB0FB6
:1007100040F4BF2B11F460FF04C06F5F7F4F8F4F19
:100720009F4F089557FD9058440F551F59F05F3F54
:1007300071F04795880F97FB991F61F09F3F79F003
:1007400087950895121613061406551FF2CF469585
:10075000F1DF08C0161617061806991FF1CF869507
:100760007105610508940895E894BB2766277727EB
:10077000CB0197F908950E94460308F48FEF08957E
:100780000E94D3030C9481030E94730338F00E94EB
:100790007A0320F0952311F00C946A030C947003F3
:1007A00011240C94B5030E94920370F3959FC1F33A
:1007B000950F50E0551F629FF001729FBB27F00D0F
:1007C000B11D639FAA27F00DB11DAA1F649F662764
:1007D000B00DA11D661F829F2227B00DA11D621FB3
:1007E000739FB00DA11D621F839FA00D611D221F6D
:1007F000749F3327A00D611D231F849F600D211D51
:10080000822F762F6A2F11249F5750409AF0F1F0D3
:1008100088234AF0EE0FFF1FBB1F661F771F881F3C
:1008200091505040A9F79E3F510580F00C946A0307
:100830000C94B5035F3FE4F3983ED4F38695779527
:100840006795B795F795E7959F5FC1F7FE2B880FE2
:0E085000911D9695879597F90895F894FFCF1E
:10085E00A4D082437BD49243A4D0A443719DAE43D3
:10086E000000C4430000DC43A4F0F64300D0024471
:10087E0000000002000000007000000000000100F7
:02088E00000068
:00000001FF
