:100000000C9456000C9475000C9475000C947500BB
:100010000C9475000C9475000C9475000C9475008C
:100020000C9475000C9475000C9475000C9475007C
:100030000C9475000C94B3000C9475000C9475002E
:100040000C9475000C9475000C9475000C9475005C
:100050000C9475000C9475000C9475000C9475004C
:100060000C9475000C9475000C9475000C9475003C
:100070000C9475000C9475000C9475000C9475002C
:100080000C9475000C9475000C947500A201B901D4
:10009000A901C901DD01F101050219022D024D027C
:1000A000550274029302BB02DA02010311241FBE3F
:1000B000CFEFD0E4DEBFCDBF11E0A0E0B1E0EAEBCE
:1000C000F9E000E00BBF02C007900D92A239B10722
:1000D000D9F721E0A2E9B1E001C01D92AF39B20722
:1000E000E1F70E941F030C94DB040C940000CF93F3
:1000F000C82F8A3019F48DE00E9477008091C000EB
:1001000085FFFCCFC093C60080E090E0CF910895BA
:100110008BE0809381008DE790E09093890080933D
:10012000880082E080936F00109285001092840016
:1001300080918E0190918F01A0919001B0919101D9
:100140008093940190939501A0939601B0939701A9
:100150008FB780688FBF089510928100089581E065
:100160008093980108951F920F920FB60F92112459
:100170000BB60F922F933F934F935F936F937F93A1
:100180008F939F93AF93BF93EF93FF9380919401CD
:1001900090919501A0919601B09197010197A109C5
:1001A000B1098093940190939501A0939601B09327
:1001B0009701892B8A2B8B2B91F40E94AF008091A1
:1001C0008E0190918F01A0919001B0919101809347
:1001D000940190939501A0939601B0939701FF919C
:1001E000EF91BF91AF919F918F917F916F915F91AF
:1001F0004F913F912F910F900BBE0F900FBE0F901C
:100200001F90189560938E0170938F0180939001D9
:10021000909391016093940170939501809396015E
:10022000909397010895CF92DF92EF92FF926B0126
:100230007C016091990170919A0180919B0190914C
:100240009C01A70196010E944703882309F458C026
:1002500020E030E0A901C701B6010E9447038111E7
:1002600006C0E1E9F0E080818870808305C0E1E9A3
:10027000F0E080818360808328E539E344E75FE331
:10028000C701B6010E94470388233CF48FEF9FEF1C
:10029000909399008093980027C020E034E244EFC7
:1002A00056E4C701B6010E94690418162CF4109296
:1002B00099001092980018C020E030E040E053E42C
:1002C000C701B6010E946E049B01AC0160E074E2BC
:1002D00084EF9AE40E944C030E94BE0361507109AE
:1002E000709399006093980010929500109294007A
:1002F000C0929901D0929A01E0929B01F0929C01E8
:10030000FF90EF90DF90CF90089580E4809390006D
:100310008BE08093910060E070E0CB010E941301BC
:10032000089510929000109291000895E0919D011F
:10033000F0919E01E930F10508F0A2C0EA5BFF4FA1
:100340000C943E0382E090E090939E0180939D0187
:1003500097C0843039F481E090E090939E018093BF
:100360009D018EC082E090E090939E0180939D015C
:1003700087C0843039F481E090E090939E018093AF
:100380009D017EC083E090E090939E0180939D014B
:1003900077C080919301803149F41092930184E0F9
:1003A00090E090939E0180939D016AC083E090E06D
:1003B00090939E0180939D0163C080919301893049
:1003C00049F41092930185E090E090939E01809310
:1003D0009D0156C084E090E090939E0180939D0122
:1003E0004FC080919301843049F41092930186E0CC
:1003F00090E090939E0180939D0142C085E090E043
:1004000090939E0180939D013BC080919301833026
:1004100049F41092930187E090E090939E018093BD
:100420009D012EC086E090E090939E0180939D01F7
:1004300027C080919301843049F41092930188E0A1
:1004400090E090939E0180939D011AC087E090E018
:1004500090939E0180939D0113C080919301803100
:1004600049F41092930182E090E090939E01809372
:100470009D0106C088E090E090939E0180939D01CD
:10048000E0919D01F0919E013297E730F10508F06F
:10049000D5C0E15BFF4F0C943E031092930160E0E6
:1004A00070E0CB010E9413010895E0919301F0E008
:1004B000EE0FFF1FEE0FFF1FE05CFE4F60817181AA
:1004C000828193810E941301809192018F5F8093BA
:1004D0009201843009F0B2C0809193018F5F8093C4
:1004E0009301109292010895E0919301F0E0EE0FD4
:1004F000FF1FEE0FFF1FE45EFE4F6081718182815E
:1005000093810E941301809192018F5F80939201E9
:10051000843009F093C0809193018F5F80939301A1
:10052000109292010895E0919301F0E0EE0FFF1F09
:10053000EE0FFF1FE45FFE4F608171818281938126
:100540000E941301809192018F5F8093920190919C
:1005500093012FEF290F223018F48F5F80939201BF
:1005600080919201843009F069C09F5F909393015C
:10057000109292010895E0919301F0E0EE0FFF1FB9
:10058000EE0FFF1FE050FF4F6081718182819381E8
:100590000E941301809192018F5F809392018230BB
:1005A00009F04CC0809193018F5F8093930110926A
:1005B00092010895E0919301F0E0EE0FFF1FEE0F1E
:1005C000FF1FE45FFE4F60817181828193810E94F1
:1005D0001301809192018F5F80939201909193011A
:1005E0002FEF290F223018F48F5F809392018091B2
:1005F0009201843019F59F5F9093930110929201BC
:100600000895E0919301F0E0EE0FFF1FEE0FFF1F42
:10061000E05CFE4F60817181828193810E941301B1
:10062000809192018F5F80939201843039F48091A0
:1006300093018F5F8093930110929201089511B8F6
:100640008FEF82B984B915B810929E0110929D0166
:100650000E94850164E670E080E090E00E94020163
:100660000E94880080B1809587700E9496018091D9
:1006700098018823E1F310929801F4CFEE0FFF1F49
:100680000024001C0BBE0790F691E02D09940E94F7
:10069000F40308F481E008950E9460030C942F0491
:1006A0000E94280458F00E94210440F029F45F3F82
:1006B00029F00C94180451110C9463040C941E043A
:1006C0000E94400468F39923B1F3552391F3951BDD
:1006D000550BBB27AA2762177307840738F09F5F63
:1006E0005F4F220F331F441FAA1FA9F335D00E2ED0
:1006F0003AF0E0E832D091505040E695001CCAF73D
:100700002BD0FE2F29D0660F771F881FBB1F2617FF
:1007100037074807AB07B0E809F0BB0B802DBF01D6
:10072000FF2793585F4F3AF09E3F510578F00C94A5
:1007300018040C9463045F3FE4F3983ED4F3869569
:1007400077956795B795F7959F5FC9F7880F911DC6
:100750009695879597F90895E1E0660F771F881FB2
:10076000BB1F621773078407BA0720F0621B730B65
:10077000840BBA0BEE1F88F7E09508950E94C5031D
:100780006894B1110C94630408950E94480488F0A1
:100790009F5798F0B92F9927B751B0F0E1F0660F45
:1007A000771F881F991F1AF0BA95C9F714C0B13086
:1007B00091F00E946204B1E008950C946204672FE6
:1007C000782F8827B85F39F0B93FCCF386957795B5
:1007D0006795B395D9F73EF490958095709561959E
:1007E0007F4F8F4F9F4F0895990F0008550FAA0B09
:1007F000E0E8FEEF16161706E807F907C0F0121634
:100800001306E407F50798F0621B730B840B950B36
:1008100039F40A2661F0232B242B252B21F408958B
:100820000A2609F4A140A6958FEF811D811D089528
:1008300097F99F6780E870E060E008959FEF80EC93
:10084000089500240A941616170618060906089536
:1008500000240A9412161306140605060895092E9C
:100860000394000C11F4882352F0BB0F40F4BF2B0B
:1008700011F460FF04C06F5F7F4F8F4F9F4F08954B
:1008800057FD9058440F551F59F05F3F71F0479541
:10089000880F97FB991F61F09F3F79F08795089526
:1008A000121613061406551FF2CF4695F1DF08C045
:1008B000161617061806991FF1CF86957105610562
:1008C00008940895E894BB2766277727CB0197F90A
:1008D00008950E94F40308F48FEF08950E948104A4
:1008E0000C942F040E94210438F00E94280420F068
:1008F000952311F00C9418040C941E0411240C94EC
:1009000063040E94400470F3959FC1F3950F50E07B
:10091000551F629FF001729FBB27F00DB11D639FB1
:10092000AA27F00DB11DAA1F649F6627B00DA11D57
:10093000661F829F2227B00DA11D621F739FB00DFD
:10094000A11D621F839FA00D611D221F749F33276D
:10095000A00D611D231F849F600D211D822F762F06
:100960006A2F11249F5750409AF0F1F088234AF0E3
:10097000EE0FFF1FBB1F661F771F881F915050404F
:10098000A9F79E3F510580F00C9418040C94630461
:100990005F3FE4F3983ED4F3869577956795B795D6
:1009A000F795E7959F5FC1F7FE2B880F911D9695F0
:0A09B000879597F90895F894FFCF9A
:1009BA00A4D0A443719DAE430080A4430000DC434D
:1009CA000000C443000000000000C443000000000F
:1009DA00A4D0A443719DAE430000C443A4D0824373
:1009EA00A4D0A443719DAE430000C443000000009C
:1009FA00000000000000C4430000DC43A4F0F643FA
:100A0A0000000000A4F0F6430000DC430000C443E9
:100A1A00000000000000C4430000DC43A4F0F643D9
:100A2A000000DC430000C443000000000000C4438F
:100A3A000000000200000000770000000000010032
:020A4A000000AA
:00000001FF
