:100000000C9446000C9465000C9465000C946500FB
:100010000C9465000C9465000C9465000C946500CC
:100020000C9465000C9465000C9465000C946500BC
:100030000C9465000C94A3000C9465000C9465006E
:100040000C9465000C9465000C9465000C9465009C
:100050000C9465000C9465000C9465000C9465008C
:100060000C9465000C9465000C9465000C9465007C
:100070000C9465000C9465000C9465000C9465006C
:100080000C9465000C9465000C94650011241FBE4F
:10009000CFEFD0E4DEBFCDBF11E0A0E0B1E0E6E1FC
:1000A000F6E000E00BBF02C007900D92A231B1074D
:1000B000D9F721E0A2E1B1E001C01D92A532B2075B
:1000C000E1F70E9464020C9409030C940000CF93A2
:1000D000C82F8A3019F48DE00E9467008091C0001B
:1000E00085FFFCCFC093C60080E090E0CF910895DB
:1000F0008BE0809381008DE790E09093890080935E
:10010000880082E080936F00109285001092840036
:1001100080910E0190910F01A0911001B0911101F9
:100120008093120190931301A0931401B0931501D1
:100130008FB780688FBF089510928100089581E085
:100140008093160108951F920F920FB60F921124FB
:100150000BB60F922F933F934F935F936F937F93C1
:100160008F939F93AF93BF93EF93FF93809112016F
:1001700090911301A0911401B09115010197A1096B
:10018000B1098093120190931301A0931401B093CD
:100190001501892B8A2B8B2B91F40E949F00809153
:1001A0000E0190910F01A0911001B0911101809367
:1001B000120190931301A0931401B0931501FF91C4
:1001C000EF91BF91AF919F918F917F916F915F91CF
:1001D0004F913F912F910F900BBE0F900FBE0F903C
:1001E0001F90189560930E0170930F01809310017A
:1001F0009093110160931201709313018093140185
:1002000090931501089580911D0190911E018130F8
:10021000910559F018F0029779F015C081E090E04F
:1002200090931E0180931D0112C082E090E0909394
:100230001E0180931D010BC081E090E090931E0190
:1002400080931D0104C010921E0110921D01809127
:100250001D0190911E018130910539F018F002972F
:1002600041F0089510922001089588E080932001C4
:10027000089510922001089580912101909122010A
:100280008130910571F030F08230910589F003974B
:10029000B1F01CC081E090E0909322018093210195
:1002A00019C082E090E0909322018093210112C056
:1002B00083E090E090932201809321010BC081E0C4
:1002C00090E0909322018093210104C010922201BA
:1002D000109221018091210190912201813091059C
:1002E00051F030F08230910551F0039761F008959C
:1002F00010921801089581E080931801089582E01A
:1003000080931801089584E0809318010895209146
:10031000190130911A012130310579F038F022307D
:10032000310521F12330310541F12EC081E090E00B
:1003300090931A01809319012BC0843039F483E023
:1003400090E090931A018093190122C0823039F411
:1003500082E090E090931A018093190119C081E026
:1003600090E090931A018093190112C081E090E00F
:1003700090931A01809319010BC081E090E0909353
:100380001A018093190104C010921A0110921901E8
:100390008091190190911A018230910519F003970B
:1003A00049F00895809117018A3058F48E5F809348
:1003B0001701089580911701833018F082508093BF
:1003C0001701089520912301309124012130310536
:1003D00079F038F02230310559F123303105C1F080
:1003E0002EC081E090E090932401809323012BC0E4
:1003F000813039F483E090E09093240180932301CD
:1004000022C081E090E090932401809323011BC0DF
:10041000882339F082E090E09093240180932301B7
:1004200012C081E090E090932401809323010BC0DF
:1004300083E090E0909324018093230104C0109204
:100440002401109223018091230190912401823094
:10045000910561F08330910529F0019749F41092DC
:100460001F01089580E180931F01089510921F01DC
:10047000089580911B0190911C01009719F001973C
:1004800041F00EC081E090E090931C0180931B012D
:100490000BC081E090E090931C0180931B0104C08D
:1004A00010921C0110921B0180911B0190911C0164
:1004B000019749F49091200180911801892B909126
:1004C0001F01892B85B90895CF93DF9300D000D009
:1004D0001F92CDB7DEB78FEF84B915B811B882B9C6
:1004E000C0901701D12CE12CF12C10921E0110921A
:1004F0001D011092220110922101109224011092EC
:10050000230110921C0110921B0110921A011092EB
:10051000190182E08093170161E070E080E090E0D3
:100520000E94F2000E9478000F2EF4E64F2E512C0C
:10053000612C712CF02D0F2EFCE28F2E99249394B8
:10054000A12CB12CF02D88EE93E0A0E0B0E08983DF
:100550009A83AB83BC8380B1809587708D838981BA
:100560009A81AB81BC81883E9340A105B10530F0F2
:100570000E94030119821A821B821C828CE2881657
:1005800081E09806A104B10428F00E943C01812C6E
:10059000912C54018091170190E0A0E0B0E0C816C2
:1005A000D906EA06FB0630F08D810E94E201C12CDB
:1005B000D12C760194E6491651046104710430F09F
:1005C0008D810E948701412C512C32010E943902F9
:1005D000809116018823E1F31092160189819A8196
:1005E000AB81BC810196A11DB11D89839A83AB8328
:1005F000BC839FEF891A990AA90AB90AAFEFCA1AF0
:10060000DA0AEA0AFA0ABFEF4B1A5B0A6B0A7B0A9C
:06061000A2CFF894FFCF19
:10061600000000020000000067000000000001006A
:020626000000D2
:00000001FF
