:100000000C9446000C9465000C9465000C946500FB
:100010000C9465000C9465000C9465000C946500CC
:100020000C9465000C9465000C9465000C946500BC
:100030000C9465000C94A3000C9465000C9465006E
:100040000C9465000C9465000C9465000C9465009C
:100050000C9465000C9465000C9465000C9465008C
:100060000C9465000C9465000C9465000C9465007C
:100070000C9465000C9465000C9465000C9465006C
:100080000C9465000C9465000C94650011241FBE4F
:10009000CFEFD0E4DEBFCDBF11E0A0E0B1E0E4EDF2
:1000A000F4E000E00BBF02C007900D92A231B1074F
:1000B000D9F721E0A2E1B1E001C01D92A232B2075E
:1000C000E1F70E9409020C9468020C940000CF939F
:1000D000C82F8A3019F48DE00E9467008091C0001B
:1000E00085FFFCCFC093C60080E090E0CF910895DB
:1000F0008BE0809381008DE790E09093890080935E
:10010000880082E080936F00109285001092840036
:1001100080910E0190910F01A0911001B0911101F9
:100120008093120190931301A0931401B0931501D1
:100130008FB780688FBF089510928100089581E085
:100140008093160108951F920F920FB60F921124FB
:100150000BB60F922F933F934F935F936F937F93C1
:100160008F939F93AF93BF93EF93FF93809112016F
:1001700090911301A0911401B09115010197A1096B
:10018000B1098093120190931301A0931401B093CD
:100190001501892B8A2B8B2B91F40E949F00809153
:1001A0000E0190910F01A0911001B0911101809367
:1001B000120190931301A0931401B0931501FF91C4
:1001C000EF91BF91AF919F918F917F916F915F91CF
:1001D0004F913F912F910F900BBE0F900FBE0F903C
:1001E0001F90189560930E0170930F01809310017A
:1001F0009093110160931201709313018093140185
:1002000090931501089580911A0190911B018130FE
:10021000910559F018F0029779F015C081E090E04F
:1002200090931B0180931A0112C082E090E090939A
:100230001B0180931A010BC081E090E090931B0199
:1002400080931A0104C010921B0110921A01809130
:100250001A0190911B018130910539F018F0029735
:1002600041F0089510921D01089588E080931D01CA
:10027000089510921D01089580911E0190911F0113
:100280008130910571F030F08230910589F003974B
:10029000B1F01CC081E090E090931F0180931E019B
:1002A00019C082E090E090931F0180931E0112C05C
:1002B00083E090E090931F0180931E010BC081E0CA
:1002C00090E090931F0180931E0104C010921F01C3
:1002D00010921E0180911E0190911F0181309105A5
:1002E00051F030F08230910551F0039761F008959C
:1002F00010921701089581E080931701089582E01C
:1003000080931701089584E0809317010895209148
:100310002001309121012130310579F038F022306F
:10032000310559F123303105C1F02EC081E090E054
:1003300090932101809320012BC0882339F083E022
:1003400090E0909321018093200122C081E090E011
:1003500090932101809320011BC0882339F082E013
:1003600090E0909321018093200112C081E090E001
:1003700090932101809320010BC083E090E0909343
:1003800021018093200104C01092210110922001CC
:1003900080912001909121018230910561F083309C
:1003A000910529F0019749F410921C01089580E10C
:1003B00080931C01089510921C01089580911801EA
:1003C00090911901009719F0019741F00EC081E05A
:1003D00090E090931901809318010BC081E090E0A8
:1003E000909319018093180104C010921901109282
:1003F00018018091180190911901019749F4909189
:100400001D0180911701892B90911C01892B85B9C1
:1004100008958FEF84B915B811B882B910921B01F5
:1004200010921A0110921F0110921E0110922101C8
:1004300010922001109219011092180162E070E0F0
:1004400080E090E00E94F2000E9478000F2EFCE213
:100450008F2E99249394A12CB12CF02D0F2EF8EE11
:10046000CF2EF3E0DF2EE12CF12CF02DC0B181E096
:10047000C827C17088EEC81683E0D806E104F104ED
:1004800028F00E940301C12CD12C76018CE2881641
:1004900081E09806A104B10428F00E943C01812C5F
:1004A000912C54018C2F0E9487010E94DE018091C3
:1004B00016018823E1F31092160182E0C80ED11CC8
:1004C000E11CF11C82E0880E911CA11CB11CCECF56
:0404D000F894FFCFCE
:1004D40000000002000000006700000000000100AE
:0204E400000016
:00000001FF
