:100000000C9446000C9465000C9465000C946500FB
:100010000C9465000C9465000C9465000C946500CC
:100020000C9465000C9465000C9465000C946500BC
:100030000C9465000C94A3000C9465000C9465006E
:100040000C9465000C9465000C9465000C9465009C
:100050000C9465000C9465000C9465000C9465008C
:100060000C9465000C9465000C9465000C9465007C
:100070000C9465000C9465000C9465000C9465006C
:100080000C9465000C9465000C94650011241FBE4F
:10009000CFEFD0E4DEBFCDBF11E0A0E0B1E0E6E0FD
:1000A000F4E000E00BBF02C007900D92A231B1074F
:1000B000D9F721E0A2E1B1E001C01D92AF31B20752
:1000C000E1F70E94AF010C9401020C940000CF9361
:1000D000C82F8A3019F48DE00E9467008091C0001B
:1000E00085FFFCCFC093C60080E090E0CF910895DB
:1000F0008BE0809381008DE790E09093890080935E
:10010000880082E080936F00109285001092840036
:1001100080910E0190910F01A0911001B0911101F9
:100120008093120190931301A0931401B0931501D1
:100130008FB780688FBF089510928100089581E085
:100140008093160108951F920F920FB60F921124FB
:100150000BB60F922F933F934F935F936F937F93C1
:100160008F939F93AF93BF93EF93FF93809112016F
:1001700090911301A0911401B09115010197A1096B
:10018000B1098093120190931301A0931401B093CD
:100190001501892B8A2B8B2B91F40E949F00809153
:1001A0000E0190910F01A0911001B0911101809367
:1001B000120190931301A0931401B0931501FF91C4
:1001C000EF91BF91AF919F918F917F916F915F91CF
:1001D0004F913F912F910F900BBE0F900FBE0F903C
:1001E0001F90189560930E0170930F01809310017A
:1001F0009093110160931201709313018093140185
:1002000090931501089580911A0190911B018130FE
:10021000910559F018F0029779F015C081E090E04F
:1002200090931B0180931A0112C082E090E090939A
:100230001B0180931A010BC081E090E090931B0199
:1002400080931A0104C010921B0110921A01809130
:100250001A0190911B018130910539F018F0029735
:1002600041F0089510921C01089588E080931C01CC
:10027000089510921C01089580911D0190911E0116
:100280008130910571F030F08230910589F003974B
:10029000B1F01CC081E090E090931E0180931D019D
:1002A00019C082E090E090931E0180931D0112C05E
:1002B00083E090E090931E0180931D010BC081E0CC
:1002C00090E090931E0180931D0104C010921E01C6
:1002D00010921D0180911D0190911E0181309105A8
:1002E00051F030F08230910551F0039761F008959C
:1002F00010921701089581E080931701089582E01C
:1003000080931701089584E08093170108958091E8
:10031000180190911901009719F0019741F00EC052
:1003200081E090E090931901809318010BC081E067
:1003300090E0909319018093180104C01092190164
:10034000109218018091180190911901019731F4D0
:1003500090911C0180911701892B85B908958FEF29
:1003600084B915B810921B0110921A0110921E0147
:1003700010921D01109219011092180164E670E0AC
:1003800080E090E00E94F2000E9478000F2EFCE2D4
:100390008F2E99249394A12CB12CF02D0F2EF8EED2
:1003A000CF2EF3E0DF2EE12CF12CF02D88EEC816D5
:1003B00083E0D806E104F10428F00E940301C12C77
:1003C000D12C76018CE2881681E09806A104B10454
:1003D00028F00E943C01812C912C54010E9487013D
:1003E000809116018823E1F31092160184E6C80E6D
:1003F000D11CE11CF11C84E6880E911CA11CB11CCF
:06040000D5CFF894FFCFF8
:10040600000000020000000067000000000001007C
:020416000000E4
:00000001FF
