:100000000C9468000C9487000C9487000C94870073
:100010000C9487000C9487000C9487000C94870044
:100020000C9487000C9487000C9487000C94870034
:100030000C9487000C9487000C9487000C94870024
:100040000C9487000C9487000C9487000C94870014
:100050000C9487000C9487000C9487000C94870004
:100060000C9487000C9487000C9487000C948700F4
:100070000C9487000C9487000C9487000C948700E4
:100080000C9487000C9487000C948700A600AD00A8
:10009000BD00CD00DD00ED00FD000D011D012D01B5
:1000A0003D014D015D016D017D018D019D01AD01A0
:1000B000CD01CF01E601D201E601D501E601D8016B
:1000C000E601DB01E601DE01E601E101E601E40112
:1000D00011241FBECFEFD0E4DEBFCDBF11E0A0E002
:1000E000B1E0E4E0F4E000E00BBF02C007900D9245
:1000F000AE30B107D9F721E0AEE0B1E001C01D920A
:10010000A131B207E1F70E94E7010C9400020C94C0
:100110000000CF93C82F8A3019F48DE00E94890027
:100120008091C00085FFFCCFC093C60080E090E0C6
:10013000CF910895E0910F01F0911001E231F105A6
:1001400008F01BC1EA5BFF4F0C94F70181E090E0DF
:100150009093100180930F0114C1882339F082E03D
:1001600090E09093100180930F010BC181E090E02B
:100170009093100180930F0104C1882339F082E02D
:1001800090E09093100180930F01FBC083E090E01A
:100190009093100180930F01F4C0882339F084E01C
:1001A00090E09093100180930F01EBC083E090E00A
:1001B0009093100180930F01E4C0882339F084E00C
:1001C00090E09093100180930F01DBC085E090E0F8
:1001D0009093100180930F01D4C0882339F086E0FA
:1001E00090E09093100180930F01CBC085E090E0E8
:1001F0009093100180930F01C4C0882339F086E0EA
:1002000090E09093100180930F01BBC087E090E0D5
:100210009093100180930F01B4C0882339F088E0D7
:1002200090E09093100180930F01ABC087E090E0C5
:100230009093100180930F01A4C0882339F088E0C7
:1002400090E09093100180930F019BC089E090E0B3
:100250009093100180930F0194C0882339F08AE0B5
:1002600090E09093100180930F018BC089E090E0A3
:100270009093100180930F0184C0882339F08AE0A5
:1002800090E09093100180930F017BC08BE090E091
:100290009093100180930F0174C0882339F08CE093
:1002A00090E09093100180930F016BC08BE090E081
:1002B0009093100180930F0164C0882339F08CE083
:1002C00090E09093100180930F015BC08DE090E06F
:1002D0009093100180930F0154C0882339F08EE071
:1002E00090E09093100180930F014BC08DE090E05F
:1002F0009093100180930F0144C0882339F08EE061
:1003000090E09093100180930F013BC08FE090E04C
:100310009093100180930F0134C0882339F080E15D
:1003200090E09093100180930F012BC08FE090E03C
:100330009093100180930F0124C0882339F080E14D
:1003400090E09093100180930F011BC081E190E039
:100350009093100180930F0114C0882339F081E03D
:1003600090E09093100180930F010BC081E190E029
:100370009093100180930F0104C01092100110920D
:100380000F01E0910F01F09110013197E031F1057B
:10039000E8F4E85AFF4F0C94F70115B8089581E08E
:1003A00085B9089582E085B9089584E085B90895F6
:1003B00088E085B9089580E185B9089580E285B91E
:1003C000089585E185B908958AE285B9089511B83F
:1003D0008FEF82B984B915B81092100110920F01F5
:1003E00090B181E0892781700E949A00F9CFEE0FC9
:1003F000FF1F0024001C0BBE0790F691E02D09940E
:04040000F894FFCF9E
:0E04040000000002000000008900000000005F
:00000001FF
