:100000000C9455000C9474000C9474000C947400BF
:100010000C9474000C9474000C9474000C94740090
:100020000C9474000C9474000C9474000C94740080
:100030000C9474000C9474000C9474000C94740070
:100040000C9474000C9474000C9474000C94740060
:100050000C9474000C9474000C9474000C94740050
:100060000C9474000C9474000C9474000C94740040
:100070000C9474000C9474000C9474000C94740030
:100080000C9474000C9474000C94740093009A0007
:10009000E100F20003011401250136015601580167
:1000A0005B015E0161016401670111241FBECFEF96
:1000B000D0E4DEBFCDBF11E0A0E0B1E0E0E0F3E0CE
:1000C00000E00BBF02C007900D92AE30B107D9F728
:1000D00021E0AEE0B1E001C01D92A131B207E1F72D
:1000E0000E946A010C947E010C940000CF93C82FEB
:1000F0008A3019F48DE00E9476008091C00085FF5F
:10010000FCCFC093C60080E090E0CF910895E091CD
:100110000F01F0911001E830F10508F0B7C0EA5B7B
:10012000FF4F0C94750181E090E090931001809353
:100130000F01B0C09FEF980F923038F482E090E04A
:100140009093100180930F01A5C09DEF980F9230FE
:1001500038F483E090E09093100180930F019AC0EF
:100160009BEF980F923038F484E090E09093100168
:1001700080930F018FC099EF980F933038F485E08A
:1001800090E09093100180930F0184C096EF980F38
:10019000933038F486E090E09093100180930F0143
:1001A00079C08E3038F087E090E090931001809312
:1001B0000F0170C081E090E09093100180930F01D7
:1001C00069C08150823038F482E090E09093100151
:1001D00080930F015FC081E090E0909310018093C5
:1001E0000F0158C08350823038F483E090E0909340
:1001F000100180930F014EC081E090E090931001B8
:1002000080930F0147C08550823038F484E090E03D
:100210009093100180930F013DC081E090E0909396
:10022000100180930F0136C08750833038F485E089
:1002300090E09093100180930F012CC081E090E03A
:100240009093100180930F0125C08A50833038F4B9
:1002500086E090E09093100180930F011BC081E035
:1002600090E09093100180930F0114C08E3038F00D
:1002700087E090E09093100180930F010BC081E024
:1002800090E09093100180930F0104C01092100130
:1002900010920F01E0910F01F09110013197E730BA
:1002A000F105B8F4E25BFF4F0C94750118B808959E
:1002B00080E688B9089580E788B9089588E388B909
:1002C00008958CE388B908958EE388B908958FE383
:1002D00088B9089511B88FEF82B987B918B880B17D
:1002E00080958F700E948700FACFEE0FFF1F0024C9
:1002F000001C0BBE0790F691E02D0994F894FFCFF7
:0E030000000000020000000076000000000077
:00000001FF
